S0190000456D6265646465642050726F6A656374322E73726563D8
S11300000C942A000C9450010C9447000C94470063
S11300100C9447000C9447000C9447000C94470040
S11300200C9447000C9447000C9447000C94470030
S11300300C9447000C9447000C9447000C94470020
S11300400C9447000C9447000C9447000C94470010
S11300500C94470011241FBECFE5D8E0DEBFCDBF0E
S113006010E0A0E6B0E0E2EFFCE002C005900D92E3
S1130070AC37B107D9F720E0ACE7B0E001C01D927E
S1130080A438B207E1F70E9496010C9477060C9409
S1130090000060E082E40E94780161E082E40E9452
S11300A0780162E082E40E94780167E084E40E94BF
S11300B0780160E083E40E94780162E083E40E94B6
S11300C0780160E081E40E94780161E081E40E94AB
S11300D0780162E081E40E94780162E084E40E9495
S11300E074010E9488030E9484030E94700308958F
S11300F0CF93DF9381E080937C00C0E0D0E00BC01D
S113010061E082E40E94840161E081E40E94840150
S11301100E948D032196C530D10594F3DF91CF91D0
S1130120089562E083E40E94800167E084E40E9411
S1130130800160E083E40E947C0160E081E40E942D
S11301407C0162E082E40E947C010E94780360E00A
S113015081E40E94800162E082E40E9480010E94A6
S1130160780061E081E40E94800161E082E40E9401
S1130170800110927C0062E081E40E947C0160E0D6
S113018082E40E947C010E94780362E081E40E9480
S1130190800160E082E40E9480010E94780061E0B6
S11301A081E40E94800161E082E40E948001109257
S11301B07C00089562E081E40E948701813089F423
S11301C067E084E40E947C0162E081E40E947C0197
S11301D060E082E40E947C010E94780310927D001A
S11301E03EC060E081E40E948701813021F080916B
S11301F07C008130A1F562E083E40E947C0160E030
S113020083E40E94800160E081E40E94800162E056
S113021082E40E947C010E94780061E081E40E94F3
S1130220800161E082E40E94800110927C0062E01F
S113023082E40E94800162E081E40E947C0160E02B
S113024082E40E947C010E94780362E081E40E94BF
S1130250800160E082E40E94800110927D0062E0EF
S113026081E40E94800160E082E40E947C010E949B
S1130270780060E082E40E94800161E081E40E94F1
S1130280800161E082E40E94800110927C0062E0BF
S113029082E40E947C0160E081E40E947C01089574
S11302A01F920F920FB60F9211242F933F934F93E7
S11302B05F936F937F938F939F93AF93BF93EF93CA
S11302C0FF930E94DA00FF91EF91BF91AF919F914C
S11302D08F917F916F915F914F913F912F910F90EB
S11302E00FBE0F901F90189540E00E949B01089547
S11302F041E00E949B01089541E00E943802089564
S113030040E00E94380208950E94D5020895CF93D8
S1130310DF931F92CDB7DEB7AE014F5F5F4F0E94F0
S11303200C0389810F90DF91CF9108950E944900B9
S11303300E949100FDCF823479F118F4813441F0A8
S11303400895833409F44CC0843409F46DC00895CD
S113035041110CC02AB381E090E002C0880F991FBC
S11303606A95E2F7809582238ABB0895413059F457
S11303702AB381E090E002C0880F991F6A95E2F7E2
S1130380822B8ABB089580E690E09F938F930E940E
S113039099030F900F90089541110CC027B381E089
S11303A090E002C0880F991F6A95E2F78095822336
S11303B087BB0895413059F427B381E090E002C02F
S11303C0880F991F6A95E2F7822B87BB089580E610
S11303D090E09F938F930E9499030F900F9008953C
S11303E041110CC024B381E090E002C0880F991F32
S11303F06A95E2F78095822384BB0895413059F4CD
S113040024B381E090E002C0880F991F6A95E2F757
S1130410822B84BB089580E690E09F938F930E9483
S113042099030F900F90089541110CC021B381E0FE
S113043090E002C0880F991F6A95E2F780958223A5
S113044081BB0895413059F421B381E090E002C0AA
S1130450880F991F6A95E2F7822B81BB089580E685
S113046090E09F938F930E9499030F900F900895AB
S1130470823479F118F4813441F00895833409F415
S11304804CC0843409F46DC0089541110CC02BB3E1
S113049081E090E002C0880F991F6A95E2F7809589
S11304A082238BBB0895413059F42BB381E090E053
S11304B002C0880F991F6A95E2F7822B8BBB0895BF
S11304C080E790E09F938F930E9499030F900F9081
S11304D0089541110CC028B381E090E002C0880F58
S11304E0991F6A95E2F78095822388BB089541306D
S11304F059F428B381E090E002C0880F991F6A95EF
S1130500E2F7822B88BB089580E790E09F938F9356
S11305100E9499030F900F90089541110CC025B3C8
S113052081E090E002C0880F991F6A95E2F78095F8
S1130530822385BB0895413059F425B381E090E0CE
S113054002C0880F991F6A95E2F7822B85BB089534
S113055080E790E09F938F930E9499030F900F90F0
S1130560089541110CC022B381E090E002C0880FCD
S1130570991F6A95E2F78095822382BB08954130E2
S113058059F422B381E090E002C0880F991F6A9564
S1130590E2F7822B82BB089580E790E09F938F93CC
S11305A00E9499030F900F9008958234A1F018F4DB
S11305B0813431F008958334C9F0843411F10895FD
S11305C02BB381E090E002C0880F991F6A95E2F78F
S11305D082278BBB089528B381E090E002C0880F86
S11305E0991F6A95E2F7822788BB089525B381E0B5
S11305F090E002C0880F991F6A95E2F7822785BBB5
S1130600089522B381E090E002C0880F991F6A9593
S1130610E2F7822782BB0895823401F118F4813411
S113062039F00895833481F1843409F443C0089582
S113063079B381E090E09C01062E02C0220F331FA3
S11306400A94E2F7872F90E08223932302C09595C2
S113065087956A95E2F7FA018083089576B381E07D
S113066090E09C01062E02C0220F331F0A94E2F789
S1130670872F90E08223932302C0959587956A95EE
S1130680E2F7FA018083089573B381E090E09C015E
S1130690062E02C0220F331F0A94E2F7872F90E040
S11306A08223932302C0959587956A95E2F7FA0110
S11306B08083089570B381E090E09C01062E02C00F
S11306C0220F331F0A94E2F7872F90E082239323AB
S11306D002C0959587956A95E2F7FA01808308959B
S11306E0789485B7836085BF8BB780648BBF08958A
S11306F090E007C008B600FEFDCF88B7816088BFD0
S11307009F5F9431B8F3089583B7856083BF0895DC
S113071083B7877B83BF12BE089590E007C008B6F5
S113072000FEFDCF88B7816088BF9F5F9330B8F328
S11307300895A0E0B0E0EFE9F3E00C945006AE01B8
S11307404B5F5F4FFA0161917191AF01809180001D
S1130750909181000E94AF03E2E00C946C06ABE040
S1130760B0E0E5EBF3E00C9440066C017B018A01F8
S1130770FC0117821682838181FFCCC1CE010196D0
S11307803C01F6019381F70193FD859193FF8191DB
S11307907F01882309F4BAC1853239F493FD859128
S11307A093FF81917F01853229F4B60190E00E9484
S11307B0A605E7CF912C212C312CFFE1F315D8F0BD
S11307C08B3279F038F4803279F08332A1F4232D1E
S11307D020611DC08D3261F0803369F4232D2160C6
S11307E016C0832D8260382EE32DE4603E2E2AC08D
S11307F0F32DF8601DC037FC2DC020ED280F2A30E2
S113080040F08E32B9F436FC81C1232D2064322E9F
S113081019C036FE06C08AE0989E200D1124922E3F
S113082011C0EAE02E9E200D1124222EF32DF06239
S11308303F2E08C08C3621F4832D8068382E02C0E8
S1130840883641F4F70193FD859193FF81917F01EF
S11308508111B3CF982F9F7D9554933028F40C5F6A
S11308601F4F9FE399830DC0833631F0833771F0B6
S1130870833509F059C021C0F801808189830E5F56
S11308801F4F88248394912C530113C02801F2E054
S11308904F0E511CF801A080B18036FE03C0692DB3
S11308A070E002C06FEF7FEFC5010E949B054C0111
S11308B08201F32DFF773F2E16C0280122E0420E5D
S11308C0511CF801A080B18036FE03C0692D70E090
S11308D002C06FEF7FEFC5010E9490054C01F32D1C
S11308E0F0683F2E820133FC1BC0822D90E08816F5
S11308F09906B0F4B60180E290E00E94A6052A941D
S1130900F4CFF50137FC859137FE81915F01B60183
S113091090E00E94A60521102A9421E0821A9108F1
S11309208114910471F7E8C0843611F0893641F5D9
S1130930F80137FE07C060817181828193810C5F69
S11309401F4F08C060817181072E000C880B990B22
S11309500E5F1F4FF32DFF763F2E97FF09C0909532
S11309608095709561957F4F8F4F9F4FF0683F2E14
S11309702AE030E0A3010E94E205882E861845C0D3
S1130980853731F4232D2F7EB22E2AE030E025C0A6
S1130990932D997FB92E8F36C1F018F4883579F0EC
S11309A0B5C0803719F0883721F0B0C0E92FE06175
S11309B0BE2EB4FE0DC0FB2DF460BF2E09C034FE64
S11309C00AC0292F2660B22E06C028E030E005C0F8
S11309D020E130E002C020E132E0F801B7FE07C0B8
S11309E060817181828193810C5F1F4F06C0608199
S11309F0718180E090E00E5F1F4FA3010E94E20529
S1130A00882E8618FB2DFF773F2E36FE0DC0232D32
S1130A102E7FA22E891458F434FE0BC032FC09C078
S1130A20832D8E7EA82E05C0B82CA32C03C0B82C11
S1130A3001C0B92CA4FE0FC0FE01E80DF11D808198
S1130A40803321F49A2D997EA92E09C0A2FE06C0F6
S1130A50B394B39404C08A2D867809F0B394A3FCAC
S1130A6011C0A0FE06C0B21488F4280C922C9B1866
S1130A700EC0B21460F4B60180E290E00E94A605B4
S1130A80B394F7CFB21418F42B1802C0982C212C6D
S1130A90A4FE10C0B60180E390E00E94A605A2FE69
S1130AA017C0A1FC03C088E790E002C088E590E08D
S1130AB0B6010CC08A2D867859F0A1FE02C08BE2E3
S1130AC001C080E2A7FC8DE2B60190E00E94A60579
S1130AD0891438F4B60180E390E00E94A6059A9444
S1130AE0F7CF8A94F301E80DF11D8081B60190E0FF
S1130AF00E94A6058110F5CF222009F442CEB6014A
S1130B0080E290E00E94A6052A94F6CFF601868141
S1130B10978102C08FEF9FEF2B96E2E10C945C0665
S1130B20FC010590615070400110D8F780959095B4
S1130B308E0F9F1F0895FC016150704001900110B9
S1130B40D8F7809590958E0F9F1F08950F931F934C
S1130B50CF93DF93FB01238121FD03C08FEF9FEF30
S1130B602CC022FF16C0468157812481358142174B
S1130B70530744F4A081B1819D012F5F3F4F31831E
S1130B8020838C93268137812F5F3F4F37832683C1
S1130B9014C08B01EC01FB010084F185E02D099563
S1130BA0892BE1F6D80116968D919C9117970196A1
S1130BB017969C938E931697CE01DF91CF911F9138
S1130BC00F910895FA01AA27283051F1203181F1BB
S1130BD0E8946F936E7F6E5F7F4F8F4F9F4FAF4F41
S1130BE0B1E03ED0B4E03CD0670F781F891F9A1F54
S1130BF0A11D680F791F8A1F911DA11D6A0F711D08
S1130C00811D911DA11D20D009F468943F912AE013
S1130C10269F11243019305D3193DEF6CF010895FB
S1130C20462F4770405D4193B3E00FD0C9F7F6CF2C
S1130C30462F4F70405D4A3318F0495D31FD4052F4
S1130C40419302D0A9F7EACFB4E0A695979587958A
S1130C5077956795BA95C9F7009761057105089569
S1130C609B01AC010A2E0694579547953795279515
S1130C70BA95C9F7620F731F841F951FA01D0895AD
S1130C802F923F924F925F926F927F928F929F9298
S1130C90AF92BF92CF92DF92EF92FF920F931F9386
S1130CA0CF93DF93CDB7DEB7CA1BDB0B0FB6F89437
S1130CB0DEBF0FBECDBF09942A88398848885F8477
S1130CC06E847D848C849B84AA84B984C884DF80E8
S1130CD0EE80FD800C811B81AA81B981CE0FD11DCC
S1130CE00FB6F894DEBF0FBECDBFED010895F894A2
S1050CF0FFCF30
S1130CF24572726F7220646972656374696F6E0003
S10F0D024572726F722076616C7565009A
S9030000FC
